{
  "contractName": "StakeToken",
  "abi": [
    {
      "inputs": [
        {
          "internalType": "contract FirstToken",
          "name": "_FirstToken",
          "type": "address"
        },
        {
          "internalType": "contract SecondToken",
          "name": "_SecondToken",
          "type": "address"
        }
      ],
      "stateMutability": "nonpayable",
      "type": "constructor"
    },
    {
      "anonymous": false,
      "inputs": [
        {
          "indexed": true,
          "internalType": "address",
          "name": "previousOwner",
          "type": "address"
        },
        {
          "indexed": true,
          "internalType": "address",
          "name": "newOwner",
          "type": "address"
        }
      ],
      "name": "OwnershipTransferred",
      "type": "event"
    },
    {
      "anonymous": false,
      "inputs": [
        {
          "indexed": false,
          "internalType": "address",
          "name": "stakers",
          "type": "address"
        },
        {
          "indexed": false,
          "internalType": "uint256",
          "name": "_amount",
          "type": "uint256"
        }
      ],
      "name": "staked",
      "type": "event"
    },
    {
      "anonymous": false,
      "inputs": [
        {
          "indexed": false,
          "internalType": "address",
          "name": "stakers",
          "type": "address"
        },
        {
          "indexed": false,
          "internalType": "uint256",
          "name": "_amount",
          "type": "uint256"
        }
      ],
      "name": "unStaked",
      "type": "event"
    },
    {
      "inputs": [],
      "name": "firstToken",
      "outputs": [
        {
          "internalType": "contract FirstToken",
          "name": "",
          "type": "address"
        }
      ],
      "stateMutability": "view",
      "type": "function",
      "constant": true
    },
    {
      "inputs": [],
      "name": "name",
      "outputs": [
        {
          "internalType": "string",
          "name": "",
          "type": "string"
        }
      ],
      "stateMutability": "view",
      "type": "function",
      "constant": true
    },
    {
      "inputs": [],
      "name": "owner",
      "outputs": [
        {
          "internalType": "address",
          "name": "",
          "type": "address"
        }
      ],
      "stateMutability": "view",
      "type": "function",
      "constant": true
    },
    {
      "inputs": [],
      "name": "renounceOwnership",
      "outputs": [],
      "stateMutability": "nonpayable",
      "type": "function"
    },
    {
      "inputs": [],
      "name": "secondToken",
      "outputs": [
        {
          "internalType": "contract SecondToken",
          "name": "",
          "type": "address"
        }
      ],
      "stateMutability": "view",
      "type": "function",
      "constant": true
    },
    {
      "inputs": [
        {
          "internalType": "address",
          "name": "newOwner",
          "type": "address"
        }
      ],
      "name": "transferOwnership",
      "outputs": [],
      "stateMutability": "nonpayable",
      "type": "function"
    },
    {
      "inputs": [
        {
          "internalType": "uint256",
          "name": "_amount",
          "type": "uint256"
        }
      ],
      "name": "stakeTokens",
      "outputs": [],
      "stateMutability": "nonpayable",
      "type": "function"
    },
    {
      "inputs": [],
      "name": "getstakeHolders",
      "outputs": [
        {
          "internalType": "address[]",
          "name": "",
          "type": "address[]"
        }
      ],
      "stateMutability": "view",
      "type": "function",
      "constant": true
    },
    {
      "inputs": [
        {
          "internalType": "address",
          "name": "_stakeHolder",
          "type": "address"
        }
      ],
      "name": "getstakersBalance",
      "outputs": [
        {
          "internalType": "uint256",
          "name": "",
          "type": "uint256"
        }
      ],
      "stateMutability": "view",
      "type": "function",
      "constant": true
    },
    {
      "inputs": [
        {
          "internalType": "address",
          "name": "_stakeHolder",
          "type": "address"
        }
      ],
      "name": "userHasStaked",
      "outputs": [
        {
          "internalType": "bool",
          "name": "",
          "type": "bool"
        }
      ],
      "stateMutability": "view",
      "type": "function",
      "constant": true
    },
    {
      "inputs": [
        {
          "internalType": "address",
          "name": "_stakeHolder",
          "type": "address"
        }
      ],
      "name": "userIsStaking",
      "outputs": [
        {
          "internalType": "bool",
          "name": "",
          "type": "bool"
        }
      ],
      "stateMutability": "view",
      "type": "function",
      "constant": true
    },
    {
      "inputs": [],
      "name": "unstakeToken",
      "outputs": [],
      "stateMutability": "nonpayable",
      "type": "function"
    },
    {
      "inputs": [],
      "name": "issueToken",
      "outputs": [],
      "stateMutability": "nonpayable",
      "type": "function"
    }
  ],
  "bytecode": "0x60806040526040518060400160405280600d81526020017f546f6b656e205374616b696e67000000000000000000000000000000000000008152506001908051906020019062000051929190620001c7565b503480156200005f57600080fd5b50604051620019e6380380620019e68339818101604052810190620000859190620002a5565b600062000097620001bf60201b60201c565b9050806000806101000a81548173ffffffffffffffffffffffffffffffffffffffff021916908373ffffffffffffffffffffffffffffffffffffffff1602179055508073ffffffffffffffffffffffffffffffffffffffff16600073ffffffffffffffffffffffffffffffffffffffff167f8be0079c531659141344cd1fd0a4f28419497f9722a3daafe3b4186f6b6457e060405160405180910390a35081600260006101000a81548173ffffffffffffffffffffffffffffffffffffffff021916908373ffffffffffffffffffffffffffffffffffffffff16021790555080600360006101000a81548173ffffffffffffffffffffffffffffffffffffffff021916908373ffffffffffffffffffffffffffffffffffffffff1602179055505050620003db565b600033905090565b828054620001d59062000342565b90600052602060002090601f016020900481019282620001f9576000855562000245565b82601f106200021457805160ff191683800117855562000245565b8280016001018555821562000245579182015b828111156200024457825182559160200191906001019062000227565b5b50905062000254919062000258565b5090565b5b808211156200027357600081600090555060010162000259565b5090565b6000815190506200028881620003a7565b92915050565b6000815190506200029f81620003c1565b92915050565b60008060408385031215620002b957600080fd5b6000620002c98582860162000277565b9250506020620002dc858286016200028e565b9150509250929050565b6000620002f38262000322565b9050919050565b60006200030782620002e6565b9050919050565b60006200031b82620002e6565b9050919050565b600073ffffffffffffffffffffffffffffffffffffffff82169050919050565b600060028204905060018216806200035b57607f821691505b6020821081141562000372576200037162000378565b5b50919050565b7f4e487b7100000000000000000000000000000000000000000000000000000000600052602260045260246000fd5b620003b281620002fa565b8114620003be57600080fd5b50565b620003cc816200030e565b8114620003d857600080fd5b50565b6115fb80620003eb6000396000f3fe608060405234801561001057600080fd5b50600436106100cf5760003560e01c8063715018a61161008c5780638eda7737116100665780638eda7737146101dc578063a1ee8c78146101fa578063a3d2039c14610204578063f2fde38b14610234576100cf565b8063715018a6146101985780637547c7a3146101a25780638da5cb5b146101be576100cf565b806306fdde03146100d4578063073bfc52146100f257806320eb640c146101225780632e4fc2331461012c5780633bfd49da1461015c5780636bb0e77b1461017a575b600080fd5b6100dc610250565b6040516100e9919061126b565b60405180910390f35b61010c60048036038101906101079190610ed3565b6102de565b604051610119919061130d565b60405180910390f35b61012a610327565b005b61014660048036038101906101419190610ed3565b610500565b604051610153919061121a565b60405180910390f35b610164610556565b6040516101719190611250565b60405180910390f35b61018261057c565b60405161018f9190611235565b60405180910390f35b6101a06105a2565b005b6101bc60048036038101906101b79190610f25565b6106dc565b005b6101c6610a07565b6040516101d3919061117d565b60405180910390f35b6101e4610a30565b6040516101f191906111f8565b60405180910390f35b610202610abe565b005b61021e60048036038101906102199190610ed3565b610c77565b60405161022b919061121a565b60405180910390f35b61024e60048036038101906102499190610ed3565b610ccd565b005b6001805461025d90611496565b80601f016020809104026020016040519081016040528092919081815260200182805461028990611496565b80156102d65780601f106102ab576101008083540402835291602001916102d6565b820191906000526020600020905b8154815290600101906020018083116102b957829003601f168201915b505050505081565b6000600560008373ffffffffffffffffffffffffffffffffffffffff1673ffffffffffffffffffffffffffffffffffffffff168152602001908152602001600020549050919050565b6000610332336102de565b905060008111610377576040517f08c379a000000000000000000000000000000000000000000000000000000000815260040161036e906112ed565b60405180910390fd5b600260009054906101000a900473ffffffffffffffffffffffffffffffffffffffff1673ffffffffffffffffffffffffffffffffffffffff1663a9059cbb33836040518363ffffffff1660e01b81526004016103d49291906111cf565b602060405180830381600087803b1580156103ee57600080fd5b505af1158015610402573d6000803e3d6000fd5b505050506040513d601f19601f820116820180604052508101906104269190610efc565b506000600560003373ffffffffffffffffffffffffffffffffffffffff1673ffffffffffffffffffffffffffffffffffffffff168152602001908152602001600020819055506000600760003373ffffffffffffffffffffffffffffffffffffffff1673ffffffffffffffffffffffffffffffffffffffff16815260200190815260200160002060006101000a81548160ff0219169083151502179055507f4422f6ee26bc9bf257a2a195c5dc2ce10475a4680b47c473b2bfed7f92a7822533826040516104f59291906111cf565b60405180910390a150565b6000600760008373ffffffffffffffffffffffffffffffffffffffff1673ffffffffffffffffffffffffffffffffffffffff16815260200190815260200160002060009054906101000a900460ff169050919050565b600360009054906101000a900473ffffffffffffffffffffffffffffffffffffffff1681565b600260009054906101000a900473ffffffffffffffffffffffffffffffffffffffff1681565b6105aa610e76565b73ffffffffffffffffffffffffffffffffffffffff166105c8610a07565b73ffffffffffffffffffffffffffffffffffffffff161461061e576040517f08c379a0000000000000000000000000000000000000000000000000000000008152600401610615906112cd565b60405180910390fd5b600073ffffffffffffffffffffffffffffffffffffffff1660008054906101000a900473ffffffffffffffffffffffffffffffffffffffff1673ffffffffffffffffffffffffffffffffffffffff167f8be0079c531659141344cd1fd0a4f28419497f9722a3daafe3b4186f6b6457e060405160405180910390a360008060006101000a81548173ffffffffffffffffffffffffffffffffffffffff021916908373ffffffffffffffffffffffffffffffffffffffff160217905550565b6000811161071f576040517f08c379a0000000000000000000000000000000000000000000000000000000008152600401610716906112ad565b60405180910390fd5b600260009054906101000a900473ffffffffffffffffffffffffffffffffffffffff1673ffffffffffffffffffffffffffffffffffffffff166323b872dd3330846040518463ffffffff1660e01b815260040161077e93929190611198565b602060405180830381600087803b15801561079857600080fd5b505af11580156107ac573d6000803e3d6000fd5b505050506040513d601f19601f820116820180604052508101906107d09190610efc565b5061082381600560003373ffffffffffffffffffffffffffffffffffffffff1673ffffffffffffffffffffffffffffffffffffffff16815260200190815260200160002054610e7e90919063ffffffff16565b600560003373ffffffffffffffffffffffffffffffffffffffff1673ffffffffffffffffffffffffffffffffffffffff16815260200190815260200160002081905550600660003373ffffffffffffffffffffffffffffffffffffffff1673ffffffffffffffffffffffffffffffffffffffff16815260200190815260200160002060009054906101000a900460ff1661091b576004339080600181540180825580915050600190039060005260206000200160009091909190916101000a81548173ffffffffffffffffffffffffffffffffffffffff021916908373ffffffffffffffffffffffffffffffffffffffff1602179055505b6001600760003373ffffffffffffffffffffffffffffffffffffffff1673ffffffffffffffffffffffffffffffffffffffff16815260200190815260200160002060006101000a81548160ff0219169083151502179055506001600660003373ffffffffffffffffffffffffffffffffffffffff1673ffffffffffffffffffffffffffffffffffffffff16815260200190815260200160002060006101000a81548160ff0219169083151502179055507f8f169816223f856d6f6a5945e3f7c520efe6c139d4152b6bb65e454babb2f2cb33826040516109fc9291906111cf565b60405180910390a150565b60008060009054906101000a900473ffffffffffffffffffffffffffffffffffffffff16905090565b60606004805480602002602001604051908101604052809291908181526020018280548015610ab457602002820191906000526020600020905b8160009054906101000a900473ffffffffffffffffffffffffffffffffffffffff1673ffffffffffffffffffffffffffffffffffffffff1681526020019060010190808311610a6a575b5050505050905090565b610ac6610e76565b73ffffffffffffffffffffffffffffffffffffffff16610ae4610a07565b73ffffffffffffffffffffffffffffffffffffffff1614610b3a576040517f08c379a0000000000000000000000000000000000000000000000000000000008152600401610b31906112cd565b60405180910390fd5b6000610b44610a30565b905060005b8151811015610c73576000828281518110610b8d577f4e487b7100000000000000000000000000000000000000000000000000000000600052603260045260246000fd5b602002602001015190506000610ba2826102de565b90506000811115610c5e57600360009054906101000a900473ffffffffffffffffffffffffffffffffffffffff1673ffffffffffffffffffffffffffffffffffffffff1663a9059cbb83836040518363ffffffff1660e01b8152600401610c0a9291906111cf565b602060405180830381600087803b158015610c2457600080fd5b505af1158015610c38573d6000803e3d6000fd5b505050506040513d601f19601f82011682018060405250810190610c5c9190610efc565b505b50508080610c6b906114c8565b915050610b49565b5050565b6000600660003373ffffffffffffffffffffffffffffffffffffffff1673ffffffffffffffffffffffffffffffffffffffff16815260200190815260200160002060009054906101000a900460ff169050919050565b610cd5610e76565b73ffffffffffffffffffffffffffffffffffffffff16610cf3610a07565b73ffffffffffffffffffffffffffffffffffffffff1614610d49576040517f08c379a0000000000000000000000000000000000000000000000000000000008152600401610d40906112cd565b60405180910390fd5b600073ffffffffffffffffffffffffffffffffffffffff168173ffffffffffffffffffffffffffffffffffffffff161415610db9576040517f08c379a0000000000000000000000000000000000000000000000000000000008152600401610db09061128d565b60405180910390fd5b8073ffffffffffffffffffffffffffffffffffffffff1660008054906101000a900473ffffffffffffffffffffffffffffffffffffffff1673ffffffffffffffffffffffffffffffffffffffff167f8be0079c531659141344cd1fd0a4f28419497f9722a3daafe3b4186f6b6457e060405160405180910390a3806000806101000a81548173ffffffffffffffffffffffffffffffffffffffff021916908373ffffffffffffffffffffffffffffffffffffffff16021790555050565b600033905090565b60008183610e8c919061137d565b905092915050565b600081359050610ea381611580565b92915050565b600081519050610eb881611597565b92915050565b600081359050610ecd816115ae565b92915050565b600060208284031215610ee557600080fd5b6000610ef384828501610e94565b91505092915050565b600060208284031215610f0e57600080fd5b6000610f1c84828501610ea9565b91505092915050565b600060208284031215610f3757600080fd5b6000610f4584828501610ebe565b91505092915050565b6000610f5a8383610f66565b60208301905092915050565b610f6f816113d3565b82525050565b610f7e816113d3565b82525050565b6000610f8f82611338565b610f99818561135b565b9350610fa483611328565b8060005b83811015610fd5578151610fbc8882610f4e565b9750610fc78361134e565b925050600181019050610fa8565b5085935050505092915050565b610feb816113e5565b82525050565b610ffa8161141b565b82525050565b6110098161143f565b82525050565b600061101a82611343565b611024818561136c565b9350611034818560208601611463565b61103d8161156f565b840191505092915050565b600061105560268361136c565b91507f4f776e61626c653a206e6577206f776e657220697320746865207a65726f206160008301527f64647265737300000000000000000000000000000000000000000000000000006020830152604082019050919050565b60006110bb601d8361136c565b91507f416d6f756e74206d7573742062652067726561746572207468616e20300000006000830152602082019050919050565b60006110fb60208361136c565b91507f4f776e61626c653a2063616c6c6572206973206e6f7420746865206f776e65726000830152602082019050919050565b600061113b60128361136c565b91507f4e6f7468696e6720746f20756e7374616b6500000000000000000000000000006000830152602082019050919050565b61117781611411565b82525050565b60006020820190506111926000830184610f75565b92915050565b60006060820190506111ad6000830186610f75565b6111ba6020830185610f75565b6111c7604083018461116e565b949350505050565b60006040820190506111e46000830185610f75565b6111f1602083018461116e565b9392505050565b600060208201905081810360008301526112128184610f84565b905092915050565b600060208201905061122f6000830184610fe2565b92915050565b600060208201905061124a6000830184610ff1565b92915050565b60006020820190506112656000830184611000565b92915050565b60006020820190508181036000830152611285818461100f565b905092915050565b600060208201905081810360008301526112a681611048565b9050919050565b600060208201905081810360008301526112c6816110ae565b9050919050565b600060208201905081810360008301526112e6816110ee565b9050919050565b600060208201905081810360008301526113068161112e565b9050919050565b6000602082019050611322600083018461116e565b92915050565b6000819050602082019050919050565b600081519050919050565b600081519050919050565b6000602082019050919050565b600082825260208201905092915050565b600082825260208201905092915050565b600061138882611411565b915061139383611411565b9250827fffffffffffffffffffffffffffffffffffffffffffffffffffffffffffffffff038211156113c8576113c7611511565b5b828201905092915050565b60006113de826113f1565b9050919050565b60008115159050919050565b600073ffffffffffffffffffffffffffffffffffffffff82169050919050565b6000819050919050565b60006114268261142d565b9050919050565b6000611438826113f1565b9050919050565b600061144a82611451565b9050919050565b600061145c826113f1565b9050919050565b60005b83811015611481578082015181840152602081019050611466565b83811115611490576000848401525b50505050565b600060028204905060018216806114ae57607f821691505b602082108114156114c2576114c1611540565b5b50919050565b60006114d382611411565b91507fffffffffffffffffffffffffffffffffffffffffffffffffffffffffffffffff82141561150657611505611511565b5b600182019050919050565b7f4e487b7100000000000000000000000000000000000000000000000000000000600052601160045260246000fd5b7f4e487b7100000000000000000000000000000000000000000000000000000000600052602260045260246000fd5b6000601f19601f8301169050919050565b611589816113d3565b811461159457600080fd5b50565b6115a0816113e5565b81146115ab57600080fd5b50565b6115b781611411565b81146115c257600080fd5b5056fea2646970667358221220845f339765dcfd9339370950ddf0a6fc9dc970080b967e2108205b388356f4ae64736f6c63430008000033",
  "immutableReferences": {},
  "source": "pragma solidity ^0.8.0;\r\n\r\nimport \"./FirstToken.sol\";\r\nimport \"./SecondToken.sol\";\r\nimport '@openzeppelin/contracts/utils/math/SafeMath.sol';\r\nimport '@openzeppelin/contracts/access/Ownable.sol';\r\n\r\ncontract StakeToken is Ownable{\r\n    \r\n    string public name = \"Token Staking\";\r\n    FirstToken public firstToken;\r\n    SecondToken public secondToken;\r\n\r\n    using SafeMath for uint256;\r\n    \r\n    address[] stakeHolders;\r\n    mapping(address => uint) stakersBalance;\r\n    mapping(address => bool) hasStaked;\r\n    mapping(address => bool) isStaking;\r\n\r\n    event staked(address stakers, uint _amount);\r\n    event unStaked(address stakers, uint _amount);\r\n    \r\n    constructor(FirstToken _FirstToken, SecondToken _SecondToken) public{\r\n        firstToken = _FirstToken;\r\n        secondToken = _SecondToken;\r\n    }\r\n// Stake Token\r\n    function stakeTokens(uint _amount) public {\r\n        require(_amount > 0, \"Amount must be greater than 0\");\r\n\r\n        firstToken.transferFrom(msg.sender, address(this), _amount);\r\n        stakersBalance[msg.sender] = stakersBalance[msg.sender].add(_amount);\r\n\r\n        if(!hasStaked[msg.sender]){\r\n            stakeHolders.push(msg.sender);\r\n        }\r\n        isStaking[msg.sender] = true;\r\n        hasStaked[msg.sender] = true;\r\n\r\n        emit staked(msg.sender, _amount);\r\n    }\r\n\r\n    function getstakeHolders() public view returns(address[] memory) {\r\n        return stakeHolders;\r\n    }\r\n\r\n    function getstakersBalance(address _stakeHolder) public view returns(uint) {\r\n        return(stakersBalance[_stakeHolder]);        \r\n    }\r\n\r\n    function userHasStaked(address _stakeHolder) public view returns(bool) {\r\n        return(hasStaked[msg.sender]);        \r\n    }\r\n\r\n    function userIsStaking(address _stakeHolder) public view returns(bool) {\r\n        return(isStaking[_stakeHolder]);        \r\n    }\r\n// Unstake Token\r\n    function unstakeToken() public {\r\n        uint balance = getstakersBalance(msg.sender);\r\n        require(balance > 0, \"Nothing to unstake\");\r\n\r\n        firstToken.transfer(msg.sender, balance);\r\n\r\n        stakersBalance[msg.sender] = 0;\r\n\r\n        isStaking[msg.sender] = false;\r\n\r\n        emit unStaked(msg.sender, balance);\r\n    }\r\n\r\n\r\n// Issue Token\r\n    function issueToken() public onlyOwner(){\r\n        address[] memory _stakeHolders = getstakeHolders();\r\n\r\n        for(uint i = 0; i< _stakeHolders.length; i++){\r\n            address recipient = _stakeHolders[i];\r\n            uint balance = getstakersBalance(recipient);\r\n            if(balance>0){\r\n                secondToken.transfer(recipient, balance);\r\n            }\r\n        }\r\n    }\r\n    \r\n}",
  "sourcePath": "C:/Users/Administrator/Desktop/LP Staking/Token Staking/contracts/StakeToken.sol",
  "compiler": {
    "name": "solc",
    "version": "0.8.0+commit.c7dfd78e.Emscripten.clang"
  },
  "schemaVersion": "3.3.4",
  "updatedAt": "2021-03-31T16:56:24.806Z",
  "networkType": "ethereum",
  "devdoc": {
    "kind": "dev",
    "methods": {
      "owner()": {
        "details": "Returns the address of the current owner."
      },
      "renounceOwnership()": {
        "details": "Leaves the contract without owner. It will not be possible to call `onlyOwner` functions anymore. Can only be called by the current owner. NOTE: Renouncing ownership will leave the contract without an owner, thereby removing any functionality that is only available to the owner."
      },
      "transferOwnership(address)": {
        "details": "Transfers ownership of the contract to a new account (`newOwner`). Can only be called by the current owner."
      }
    },
    "version": 1
  },
  "userdoc": {
    "kind": "user",
    "methods": {},
    "version": 1
  }
}